{
  "_format": "hh-sol-artifact-1",
  "contractName": "SimpleDeFiToken",
  "sourceName": "src/backend/contracts/SimpleDeFiToken.sol",
  "abi": [
    {
      "inputs": [],
      "stateMutability": "nonpayable",
      "type": "constructor"
    },
    {
      "anonymous": false,
      "inputs": [
        {
          "indexed": true,
          "internalType": "address",
          "name": "owner",
          "type": "address"
        },
        {
          "indexed": true,
          "internalType": "address",
          "name": "spender",
          "type": "address"
        },
        {
          "indexed": false,
          "internalType": "uint256",
          "name": "value",
          "type": "uint256"
        }
      ],
      "name": "Approval",
      "type": "event"
    },
    {
      "anonymous": false,
      "inputs": [
        {
          "indexed": true,
          "internalType": "address",
          "name": "from",
          "type": "address"
        },
        {
          "indexed": true,
          "internalType": "address",
          "name": "to",
          "type": "address"
        },
        {
          "indexed": false,
          "internalType": "uint256",
          "name": "value",
          "type": "uint256"
        }
      ],
      "name": "Transfer",
      "type": "event"
    },
    {
      "inputs": [
        {
          "internalType": "address",
          "name": "owner",
          "type": "address"
        },
        {
          "internalType": "address",
          "name": "spender",
          "type": "address"
        }
      ],
      "name": "allowance",
      "outputs": [
        {
          "internalType": "uint256",
          "name": "",
          "type": "uint256"
        }
      ],
      "stateMutability": "view",
      "type": "function"
    },
    {
      "inputs": [
        {
          "internalType": "address",
          "name": "spender",
          "type": "address"
        },
        {
          "internalType": "uint256",
          "name": "amount",
          "type": "uint256"
        }
      ],
      "name": "approve",
      "outputs": [
        {
          "internalType": "bool",
          "name": "",
          "type": "bool"
        }
      ],
      "stateMutability": "nonpayable",
      "type": "function"
    },
    {
      "inputs": [
        {
          "internalType": "address",
          "name": "account",
          "type": "address"
        }
      ],
      "name": "balanceOf",
      "outputs": [
        {
          "internalType": "uint256",
          "name": "",
          "type": "uint256"
        }
      ],
      "stateMutability": "view",
      "type": "function"
    },
    {
      "inputs": [],
      "name": "decimals",
      "outputs": [
        {
          "internalType": "uint8",
          "name": "",
          "type": "uint8"
        }
      ],
      "stateMutability": "view",
      "type": "function"
    },
    {
      "inputs": [
        {
          "internalType": "address",
          "name": "spender",
          "type": "address"
        },
        {
          "internalType": "uint256",
          "name": "subtractedValue",
          "type": "uint256"
        }
      ],
      "name": "decreaseAllowance",
      "outputs": [
        {
          "internalType": "bool",
          "name": "",
          "type": "bool"
        }
      ],
      "stateMutability": "nonpayable",
      "type": "function"
    },
    {
      "inputs": [
        {
          "internalType": "address",
          "name": "spender",
          "type": "address"
        },
        {
          "internalType": "uint256",
          "name": "addedValue",
          "type": "uint256"
        }
      ],
      "name": "increaseAllowance",
      "outputs": [
        {
          "internalType": "bool",
          "name": "",
          "type": "bool"
        }
      ],
      "stateMutability": "nonpayable",
      "type": "function"
    },
    {
      "inputs": [],
      "name": "name",
      "outputs": [
        {
          "internalType": "string",
          "name": "",
          "type": "string"
        }
      ],
      "stateMutability": "view",
      "type": "function"
    },
    {
      "inputs": [],
      "name": "symbol",
      "outputs": [
        {
          "internalType": "string",
          "name": "",
          "type": "string"
        }
      ],
      "stateMutability": "view",
      "type": "function"
    },
    {
      "inputs": [],
      "name": "totalSupply",
      "outputs": [
        {
          "internalType": "uint256",
          "name": "",
          "type": "uint256"
        }
      ],
      "stateMutability": "view",
      "type": "function"
    },
    {
      "inputs": [
        {
          "internalType": "address",
          "name": "to",
          "type": "address"
        },
        {
          "internalType": "uint256",
          "name": "amount",
          "type": "uint256"
        }
      ],
      "name": "transfer",
      "outputs": [
        {
          "internalType": "bool",
          "name": "",
          "type": "bool"
        }
      ],
      "stateMutability": "nonpayable",
      "type": "function"
    },
    {
      "inputs": [
        {
          "internalType": "address",
          "name": "from",
          "type": "address"
        },
        {
          "internalType": "address",
          "name": "to",
          "type": "address"
        },
        {
          "internalType": "uint256",
          "name": "amount",
          "type": "uint256"
        }
      ],
      "name": "transferFrom",
      "outputs": [
        {
          "internalType": "bool",
          "name": "",
          "type": "bool"
        }
      ],
      "stateMutability": "nonpayable",
      "type": "function"
    },
    {
      "inputs": [
        {
          "internalType": "address",
          "name": "to",
          "type": "address"
        },
        {
          "internalType": "uint256",
          "name": "amount",
          "type": "uint256"
        }
      ],
      "name": "transferWithAutoBurn",
      "outputs": [],
      "stateMutability": "nonpayable",
      "type": "function"
    }
  ],
  "bytecode": "0x608060405234801561001057600080fd5b506040518060400160405280601181526020017f53696d706c65204465466920546f6b656e0000000000000000000000000000008152506040518060400160405280600481526020017f5344465400000000000000000000000000000000000000000000000000000000815250816003908161008c919061047a565b50806004908161009c919061047a565b5050506100b93369d3c21bcecceda10000006100be60201b60201c565b610656565b600073ffffffffffffffffffffffffffffffffffffffff168273ffffffffffffffffffffffffffffffffffffffff160361012d576040517f08c379a0000000000000000000000000000000000000000000000000000000008152600401610124906105a9565b60405180910390fd5b61013f6000838361022060201b60201c565b806002600082825461015191906105f8565b92505081905550806000808473ffffffffffffffffffffffffffffffffffffffff1673ffffffffffffffffffffffffffffffffffffffff168152602001908152602001600020600082825401925050819055508173ffffffffffffffffffffffffffffffffffffffff16600073ffffffffffffffffffffffffffffffffffffffff167fddf252ad1be2c89b69c2b068fc378daa952ba7f163c4a11628f55a4df523b3ef83604051610202919061063b565b60405180910390a361021c6000838361022560201b60201c565b5050565b505050565b505050565b600081519050919050565b7f4e487b7100000000000000000000000000000000000000000000000000000000600052604160045260246000fd5b7f4e487b7100000000000000000000000000000000000000000000000000000000600052602260045260246000fd5b600060028204905060018216806102ab57607f821691505b6020821081036102be576102bd610264565b5b50919050565b60008190508160005260206000209050919050565b60006020601f8301049050919050565b600082821b905092915050565b6000600883026103267fffffffffffffffffffffffffffffffffffffffffffffffffffffffffffffffff826102e9565b61033086836102e9565b95508019841693508086168417925050509392505050565b6000819050919050565b6000819050919050565b600061037761037261036d84610348565b610352565b610348565b9050919050565b6000819050919050565b6103918361035c565b6103a561039d8261037e565b8484546102f6565b825550505050565b600090565b6103ba6103ad565b6103c5818484610388565b505050565b5b818110156103e9576103de6000826103b2565b6001810190506103cb565b5050565b601f82111561042e576103ff816102c4565b610408846102d9565b81016020851015610417578190505b61042b610423856102d9565b8301826103ca565b50505b505050565b600082821c905092915050565b600061045160001984600802610433565b1980831691505092915050565b600061046a8383610440565b9150826002028217905092915050565b6104838261022a565b67ffffffffffffffff81111561049c5761049b610235565b5b6104a68254610293565b6104b18282856103ed565b600060209050601f8311600181146104e457600084156104d2578287015190505b6104dc858261045e565b865550610544565b601f1984166104f2866102c4565b60005b8281101561051a578489015182556001820191506020850194506020810190506104f5565b868310156105375784890151610533601f891682610440565b8355505b6001600288020188555050505b505050505050565b600082825260208201905092915050565b7f45524332303a206d696e7420746f20746865207a65726f206164647265737300600082015250565b6000610593601f8361054c565b915061059e8261055d565b602082019050919050565b600060208201905081810360008301526105c281610586565b9050919050565b7f4e487b7100000000000000000000000000000000000000000000000000000000600052601160045260246000fd5b600061060382610348565b915061060e83610348565b9250828201905080821115610626576106256105c9565b5b92915050565b61063581610348565b82525050565b6000602082019050610650600083018461062c565b92915050565b611891806106656000396000f3fe608060405234801561001057600080fd5b50600436106100b45760003560e01c80633950935111610071578063395093511461018f57806370a08231146101bf57806395d89b41146101ef578063a457c2d71461020d578063a9059cbb1461023d578063dd62ed3e1461026d576100b4565b806306fdde03146100b9578063095ea7b3146100d757806318160ddd146101075780631be0b5481461012557806323b872dd14610141578063313ce56714610171575b600080fd5b6100c161029d565b6040516100ce9190610e9f565b60405180910390f35b6100f160048036038101906100ec9190610f5a565b61032f565b6040516100fe9190610fb5565b60405180910390f35b61010f610352565b60405161011c9190610fdf565b60405180910390f35b61013f600480360381019061013a9190610f5a565b61035c565b005b61015b60048036038101906101569190610ffa565b610409565b6040516101689190610fb5565b60405180910390f35b610179610438565b6040516101869190611069565b60405180910390f35b6101a960048036038101906101a49190610f5a565b610441565b6040516101b69190610fb5565b60405180910390f35b6101d960048036038101906101d49190611084565b610478565b6040516101e69190610fdf565b60405180910390f35b6101f76104c0565b6040516102049190610e9f565b60405180910390f35b61022760048036038101906102229190610f5a565b610552565b6040516102349190610fb5565b60405180910390f35b61025760048036038101906102529190610f5a565b6105c9565b6040516102649190610fb5565b60405180910390f35b610287600480360381019061028291906110b1565b6105ec565b6040516102949190610fdf565b60405180910390f35b6060600380546102ac90611120565b80601f01602080910402602001604051908101604052809291908181526020018280546102d890611120565b80156103255780601f106102fa57610100808354040283529160200191610325565b820191906000526020600020905b81548152906001019060200180831161030857829003601f168201915b5050505050905090565b60008061033a610673565b905061034781858561067b565b600191505092915050565b6000600254905090565b8061036633610478565b10156103a7576040517f08c379a000000000000000000000000000000000000000000000000000000000815260040161039e9061119d565b60405180910390fd5b6000600a826103b6919061121b565b90506103e460405180606001604052806021815260200161183b6021913982856103df87610478565b610844565b6103ee33826108e6565b6104038382846103fe919061124c565b6105c9565b50505050565b600080610414610673565b9050610421858285610ab3565b61042c858585610b3f565b60019150509392505050565b60006012905090565b60008061044c610673565b905061046d81858561045e85896105ec565b6104689190611280565b61067b565b600191505092915050565b60008060008373ffffffffffffffffffffffffffffffffffffffff1673ffffffffffffffffffffffffffffffffffffffff168152602001908152602001600020549050919050565b6060600480546104cf90611120565b80601f01602080910402602001604051908101604052809291908181526020018280546104fb90611120565b80156105485780601f1061051d57610100808354040283529160200191610548565b820191906000526020600020905b81548152906001019060200180831161052b57829003601f168201915b5050505050905090565b60008061055d610673565b9050600061056b82866105ec565b9050838110156105b0576040517f08c379a00000000000000000000000000000000000000000000000000000000081526004016105a790611326565b60405180910390fd5b6105bd828686840361067b565b60019250505092915050565b6000806105d4610673565b90506105e1818585610b3f565b600191505092915050565b6000600160008473ffffffffffffffffffffffffffffffffffffffff1673ffffffffffffffffffffffffffffffffffffffff16815260200190815260200160002060008373ffffffffffffffffffffffffffffffffffffffff1673ffffffffffffffffffffffffffffffffffffffff16815260200190815260200160002054905092915050565b600033905090565b600073ffffffffffffffffffffffffffffffffffffffff168373ffffffffffffffffffffffffffffffffffffffff16036106ea576040517f08c379a00000000000000000000000000000000000000000000000000000000081526004016106e1906113b8565b60405180910390fd5b600073ffffffffffffffffffffffffffffffffffffffff168273ffffffffffffffffffffffffffffffffffffffff1603610759576040517f08c379a00000000000000000000000000000000000000000000000000000000081526004016107509061144a565b60405180910390fd5b80600160008573ffffffffffffffffffffffffffffffffffffffff1673ffffffffffffffffffffffffffffffffffffffff16815260200190815260200160002060008473ffffffffffffffffffffffffffffffffffffffff1673ffffffffffffffffffffffffffffffffffffffff168152602001908152602001600020819055508173ffffffffffffffffffffffffffffffffffffffff168373ffffffffffffffffffffffffffffffffffffffff167f8c5be1e5ebec7d5bd14f71427d1e84f3dd0314c0f7b2291e5b200ac8c7c3b925836040516108379190610fdf565b60405180910390a3505050565b6108e08484848460405160240161085e9493929190611479565b6040516020818303038152906040527f4f04fdc6000000000000000000000000000000000000000000000000000000007bffffffffffffffffffffffffffffffffffffffffffffffffffffffff19166020820180517bffffffffffffffffffffffffffffffffffffffffffffffffffffffff8381831617835250505050610db5565b50505050565b600073ffffffffffffffffffffffffffffffffffffffff168273ffffffffffffffffffffffffffffffffffffffff1603610955576040517f08c379a000000000000000000000000000000000000000000000000000000000815260040161094c90611537565b60405180910390fd5b61096182600083610dcf565b60008060008473ffffffffffffffffffffffffffffffffffffffff1673ffffffffffffffffffffffffffffffffffffffff168152602001908152602001600020549050818110156109e7576040517f08c379a00000000000000000000000000000000000000000000000000000000081526004016109de906115c9565b60405180910390fd5b8181036000808573ffffffffffffffffffffffffffffffffffffffff1673ffffffffffffffffffffffffffffffffffffffff1681526020019081526020016000208190555081600260008282540392505081905550600073ffffffffffffffffffffffffffffffffffffffff168373ffffffffffffffffffffffffffffffffffffffff167fddf252ad1be2c89b69c2b068fc378daa952ba7f163c4a11628f55a4df523b3ef84604051610a9a9190610fdf565b60405180910390a3610aae83600084610dd4565b505050565b6000610abf84846105ec565b90507fffffffffffffffffffffffffffffffffffffffffffffffffffffffffffffffff8114610b395781811015610b2b576040517f08c379a0000000000000000000000000000000000000000000000000000000008152600401610b2290611635565b60405180910390fd5b610b38848484840361067b565b5b50505050565b600073ffffffffffffffffffffffffffffffffffffffff168373ffffffffffffffffffffffffffffffffffffffff1603610bae576040517f08c379a0000000000000000000000000000000000000000000000000000000008152600401610ba5906116c7565b60405180910390fd5b600073ffffffffffffffffffffffffffffffffffffffff168273ffffffffffffffffffffffffffffffffffffffff1603610c1d576040517f08c379a0000000000000000000000000000000000000000000000000000000008152600401610c1490611759565b60405180910390fd5b610c28838383610dcf565b60008060008573ffffffffffffffffffffffffffffffffffffffff1673ffffffffffffffffffffffffffffffffffffffff16815260200190815260200160002054905081811015610cae576040517f08c379a0000000000000000000000000000000000000000000000000000000008152600401610ca5906117eb565b60405180910390fd5b8181036000808673ffffffffffffffffffffffffffffffffffffffff1673ffffffffffffffffffffffffffffffffffffffff16815260200190815260200160002081905550816000808573ffffffffffffffffffffffffffffffffffffffff1673ffffffffffffffffffffffffffffffffffffffff168152602001908152602001600020600082825401925050819055508273ffffffffffffffffffffffffffffffffffffffff168473ffffffffffffffffffffffffffffffffffffffff167fddf252ad1be2c89b69c2b068fc378daa952ba7f163c4a11628f55a4df523b3ef84604051610d9c9190610fdf565b60405180910390a3610daf848484610dd4565b50505050565b610dcc81610dc4610dd9610dfa565b63ffffffff16565b50565b505050565b505050565b60006a636f6e736f6c652e6c6f679050600080835160208501845afa505050565b610e05819050919050565b610e0d61180b565b565b600081519050919050565b600082825260208201905092915050565b60005b83811015610e49578082015181840152602081019050610e2e565b60008484015250505050565b6000601f19601f8301169050919050565b6000610e7182610e0f565b610e7b8185610e1a565b9350610e8b818560208601610e2b565b610e9481610e55565b840191505092915050565b60006020820190508181036000830152610eb98184610e66565b905092915050565b600080fd5b600073ffffffffffffffffffffffffffffffffffffffff82169050919050565b6000610ef182610ec6565b9050919050565b610f0181610ee6565b8114610f0c57600080fd5b50565b600081359050610f1e81610ef8565b92915050565b6000819050919050565b610f3781610f24565b8114610f4257600080fd5b50565b600081359050610f5481610f2e565b92915050565b60008060408385031215610f7157610f70610ec1565b5b6000610f7f85828601610f0f565b9250506020610f9085828601610f45565b9150509250929050565b60008115159050919050565b610faf81610f9a565b82525050565b6000602082019050610fca6000830184610fa6565b92915050565b610fd981610f24565b82525050565b6000602082019050610ff46000830184610fd0565b92915050565b60008060006060848603121561101357611012610ec1565b5b600061102186828701610f0f565b935050602061103286828701610f0f565b925050604061104386828701610f45565b9150509250925092565b600060ff82169050919050565b6110638161104d565b82525050565b600060208201905061107e600083018461105a565b92915050565b60006020828403121561109a57611099610ec1565b5b60006110a884828501610f0f565b91505092915050565b600080604083850312156110c8576110c7610ec1565b5b60006110d685828601610f0f565b92505060206110e785828601610f0f565b9150509250929050565b7f4e487b7100000000000000000000000000000000000000000000000000000000600052602260045260246000fd5b6000600282049050600182168061113857607f821691505b60208210810361114b5761114a6110f1565b5b50919050565b7f4e6f7420656e6f75676820746f6b656e73000000000000000000000000000000600082015250565b6000611187601183610e1a565b915061119282611151565b602082019050919050565b600060208201905081810360008301526111b68161117a565b9050919050565b7f4e487b7100000000000000000000000000000000000000000000000000000000600052601260045260246000fd5b7f4e487b7100000000000000000000000000000000000000000000000000000000600052601160045260246000fd5b600061122682610f24565b915061123183610f24565b925082611241576112406111bd565b5b828204905092915050565b600061125782610f24565b915061126283610f24565b925082820390508181111561127a576112796111ec565b5b92915050565b600061128b82610f24565b915061129683610f24565b92508282019050808211156112ae576112ad6111ec565b5b92915050565b7f45524332303a2064656372656173656420616c6c6f77616e63652062656c6f7760008201527f207a65726f000000000000000000000000000000000000000000000000000000602082015250565b6000611310602583610e1a565b915061131b826112b4565b604082019050919050565b6000602082019050818103600083015261133f81611303565b9050919050565b7f45524332303a20617070726f76652066726f6d20746865207a65726f2061646460008201527f7265737300000000000000000000000000000000000000000000000000000000602082015250565b60006113a2602483610e1a565b91506113ad82611346565b604082019050919050565b600060208201905081810360008301526113d181611395565b9050919050565b7f45524332303a20617070726f766520746f20746865207a65726f20616464726560008201527f7373000000000000000000000000000000000000000000000000000000000000602082015250565b6000611434602283610e1a565b915061143f826113d8565b604082019050919050565b6000602082019050818103600083015261146381611427565b9050919050565b61147381610ee6565b82525050565b600060808201905081810360008301526114938187610e66565b90506114a26020830186610fd0565b6114af604083018561146a565b6114bc6060830184610fd0565b95945050505050565b7f45524332303a206275726e2066726f6d20746865207a65726f2061646472657360008201527f7300000000000000000000000000000000000000000000000000000000000000602082015250565b6000611521602183610e1a565b915061152c826114c5565b604082019050919050565b6000602082019050818103600083015261155081611514565b9050919050565b7f45524332303a206275726e20616d6f756e7420657863656564732062616c616e60008201527f6365000000000000000000000000000000000000000000000000000000000000602082015250565b60006115b3602283610e1a565b91506115be82611557565b604082019050919050565b600060208201905081810360008301526115e2816115a6565b9050919050565b7f45524332303a20696e73756666696369656e7420616c6c6f77616e6365000000600082015250565b600061161f601d83610e1a565b915061162a826115e9565b602082019050919050565b6000602082019050818103600083015261164e81611612565b9050919050565b7f45524332303a207472616e736665722066726f6d20746865207a65726f20616460008201527f6472657373000000000000000000000000000000000000000000000000000000602082015250565b60006116b1602583610e1a565b91506116bc82611655565b604082019050919050565b600060208201905081810360008301526116e0816116a4565b9050919050565b7f45524332303a207472616e7366657220746f20746865207a65726f206164647260008201527f6573730000000000000000000000000000000000000000000000000000000000602082015250565b6000611743602383610e1a565b915061174e826116e7565b604082019050919050565b6000602082019050818103600083015261177281611736565b9050919050565b7f45524332303a207472616e7366657220616d6f756e742065786365656473206260008201527f616c616e63650000000000000000000000000000000000000000000000000000602082015250565b60006117d5602683610e1a565b91506117e082611779565b604082019050919050565b60006020820190508181036000830152611804816117c8565b9050919050565b7f4e487b7100000000000000000000000000000000000000000000000000000000600052605160045260246000fdfe4275726e696e672025732066726f6d2025732c2062616c616e6365206973202573a26469706673582212209fa1a404016ed0dd336893e94e7b29669a09b1863d09637b26e3318dbf5c6aef64736f6c634300081c0033",
  "linkReferences": {},
  "deployedLinkReferences": {}
}