{
  "_format": "hh-sol-artifact-1",
  "contractName": "SimpleDeFiToken",
  "sourceName": "src/backend/contracts/SimpleDeFiToken.sol",
  "abi": [
    {
      "inputs": [],
      "stateMutability": "nonpayable",
      "type": "constructor"
    },
    {
      "inputs": [
        {
          "internalType": "address",
          "name": "spender",
          "type": "address"
        },
        {
          "internalType": "uint256",
          "name": "allowance",
          "type": "uint256"
        },
        {
          "internalType": "uint256",
          "name": "needed",
          "type": "uint256"
        }
      ],
      "name": "ERC20InsufficientAllowance",
      "type": "error"
    },
    {
      "inputs": [
        {
          "internalType": "address",
          "name": "sender",
          "type": "address"
        },
        {
          "internalType": "uint256",
          "name": "balance",
          "type": "uint256"
        },
        {
          "internalType": "uint256",
          "name": "needed",
          "type": "uint256"
        }
      ],
      "name": "ERC20InsufficientBalance",
      "type": "error"
    },
    {
      "inputs": [
        {
          "internalType": "address",
          "name": "approver",
          "type": "address"
        }
      ],
      "name": "ERC20InvalidApprover",
      "type": "error"
    },
    {
      "inputs": [
        {
          "internalType": "address",
          "name": "receiver",
          "type": "address"
        }
      ],
      "name": "ERC20InvalidReceiver",
      "type": "error"
    },
    {
      "inputs": [
        {
          "internalType": "address",
          "name": "sender",
          "type": "address"
        }
      ],
      "name": "ERC20InvalidSender",
      "type": "error"
    },
    {
      "inputs": [
        {
          "internalType": "address",
          "name": "spender",
          "type": "address"
        }
      ],
      "name": "ERC20InvalidSpender",
      "type": "error"
    },
    {
      "anonymous": false,
      "inputs": [
        {
          "indexed": true,
          "internalType": "address",
          "name": "owner",
          "type": "address"
        },
        {
          "indexed": true,
          "internalType": "address",
          "name": "spender",
          "type": "address"
        },
        {
          "indexed": false,
          "internalType": "uint256",
          "name": "value",
          "type": "uint256"
        }
      ],
      "name": "Approval",
      "type": "event"
    },
    {
      "anonymous": false,
      "inputs": [
        {
          "indexed": true,
          "internalType": "address",
          "name": "from",
          "type": "address"
        },
        {
          "indexed": true,
          "internalType": "address",
          "name": "to",
          "type": "address"
        },
        {
          "indexed": false,
          "internalType": "uint256",
          "name": "value",
          "type": "uint256"
        }
      ],
      "name": "Transfer",
      "type": "event"
    },
    {
      "inputs": [
        {
          "internalType": "address",
          "name": "owner",
          "type": "address"
        },
        {
          "internalType": "address",
          "name": "spender",
          "type": "address"
        }
      ],
      "name": "allowance",
      "outputs": [
        {
          "internalType": "uint256",
          "name": "",
          "type": "uint256"
        }
      ],
      "stateMutability": "view",
      "type": "function"
    },
    {
      "inputs": [
        {
          "internalType": "address",
          "name": "spender",
          "type": "address"
        },
        {
          "internalType": "uint256",
          "name": "value",
          "type": "uint256"
        }
      ],
      "name": "approve",
      "outputs": [
        {
          "internalType": "bool",
          "name": "",
          "type": "bool"
        }
      ],
      "stateMutability": "nonpayable",
      "type": "function"
    },
    {
      "inputs": [
        {
          "internalType": "address",
          "name": "account",
          "type": "address"
        }
      ],
      "name": "balanceOf",
      "outputs": [
        {
          "internalType": "uint256",
          "name": "",
          "type": "uint256"
        }
      ],
      "stateMutability": "view",
      "type": "function"
    },
    {
      "inputs": [],
      "name": "decimals",
      "outputs": [
        {
          "internalType": "uint8",
          "name": "",
          "type": "uint8"
        }
      ],
      "stateMutability": "view",
      "type": "function"
    },
    {
      "inputs": [],
      "name": "name",
      "outputs": [
        {
          "internalType": "string",
          "name": "",
          "type": "string"
        }
      ],
      "stateMutability": "view",
      "type": "function"
    },
    {
      "inputs": [],
      "name": "symbol",
      "outputs": [
        {
          "internalType": "string",
          "name": "",
          "type": "string"
        }
      ],
      "stateMutability": "view",
      "type": "function"
    },
    {
      "inputs": [],
      "name": "totalSupply",
      "outputs": [
        {
          "internalType": "uint256",
          "name": "",
          "type": "uint256"
        }
      ],
      "stateMutability": "view",
      "type": "function"
    },
    {
      "inputs": [
        {
          "internalType": "address",
          "name": "to",
          "type": "address"
        },
        {
          "internalType": "uint256",
          "name": "value",
          "type": "uint256"
        }
      ],
      "name": "transfer",
      "outputs": [
        {
          "internalType": "bool",
          "name": "",
          "type": "bool"
        }
      ],
      "stateMutability": "nonpayable",
      "type": "function"
    },
    {
      "inputs": [
        {
          "internalType": "address",
          "name": "from",
          "type": "address"
        },
        {
          "internalType": "address",
          "name": "to",
          "type": "address"
        },
        {
          "internalType": "uint256",
          "name": "value",
          "type": "uint256"
        }
      ],
      "name": "transferFrom",
      "outputs": [
        {
          "internalType": "bool",
          "name": "",
          "type": "bool"
        }
      ],
      "stateMutability": "nonpayable",
      "type": "function"
    },
    {
      "inputs": [
        {
          "internalType": "address",
          "name": "to",
          "type": "address"
        },
        {
          "internalType": "uint256",
          "name": "amount",
          "type": "uint256"
        }
      ],
      "name": "transferWithAutoBurn",
      "outputs": [],
      "stateMutability": "nonpayable",
      "type": "function"
    }
  ],
  "bytecode": "0x608060405234801561001057600080fd5b506040518060400160405280601181526020017f53696d706c65204465466920546f6b656e0000000000000000000000000000008152506040518060400160405280600481526020017f5344465400000000000000000000000000000000000000000000000000000000815250816003908161008c91906105bb565b50806004908161009c91906105bb565b5050506100b93369d3c21bcecceda10000006100be60201b60201c565b6107ad565b600073ffffffffffffffffffffffffffffffffffffffff168273ffffffffffffffffffffffffffffffffffffffff16036101305760006040517fec442f0500000000000000000000000000000000000000000000000000000000815260040161012791906106ce565b60405180910390fd5b6101426000838361014660201b60201c565b5050565b600073ffffffffffffffffffffffffffffffffffffffff168373ffffffffffffffffffffffffffffffffffffffff160361019857806002600082825461018c9190610718565b9250508190555061026b565b60008060008573ffffffffffffffffffffffffffffffffffffffff1673ffffffffffffffffffffffffffffffffffffffff16815260200190815260200160002054905081811015610224578381836040517fe450d38c00000000000000000000000000000000000000000000000000000000815260040161021b9392919061075b565b60405180910390fd5b8181036000808673ffffffffffffffffffffffffffffffffffffffff1673ffffffffffffffffffffffffffffffffffffffff16815260200190815260200160002081905550505b600073ffffffffffffffffffffffffffffffffffffffff168273ffffffffffffffffffffffffffffffffffffffff16036102b45780600260008282540392505081905550610301565b806000808473ffffffffffffffffffffffffffffffffffffffff1673ffffffffffffffffffffffffffffffffffffffff168152602001908152602001600020600082825401925050819055505b8173ffffffffffffffffffffffffffffffffffffffff168373ffffffffffffffffffffffffffffffffffffffff167fddf252ad1be2c89b69c2b068fc378daa952ba7f163c4a11628f55a4df523b3ef8360405161035e9190610792565b60405180910390a3505050565b600081519050919050565b7f4e487b7100000000000000000000000000000000000000000000000000000000600052604160045260246000fd5b7f4e487b7100000000000000000000000000000000000000000000000000000000600052602260045260246000fd5b600060028204905060018216806103ec57607f821691505b6020821081036103ff576103fe6103a5565b5b50919050565b60008190508160005260206000209050919050565b60006020601f8301049050919050565b600082821b905092915050565b6000600883026104677fffffffffffffffffffffffffffffffffffffffffffffffffffffffffffffffff8261042a565b610471868361042a565b95508019841693508086168417925050509392505050565b6000819050919050565b6000819050919050565b60006104b86104b36104ae84610489565b610493565b610489565b9050919050565b6000819050919050565b6104d28361049d565b6104e66104de826104bf565b848454610437565b825550505050565b600090565b6104fb6104ee565b6105068184846104c9565b505050565b5b8181101561052a5761051f6000826104f3565b60018101905061050c565b5050565b601f82111561056f5761054081610405565b6105498461041a565b81016020851015610558578190505b61056c6105648561041a565b83018261050b565b50505b505050565b600082821c905092915050565b600061059260001984600802610574565b1980831691505092915050565b60006105ab8383610581565b9150826002028217905092915050565b6105c48261036b565b67ffffffffffffffff8111156105dd576105dc610376565b5b6105e782546103d4565b6105f282828561052e565b600060209050601f8311600181146106255760008415610613578287015190505b61061d858261059f565b865550610685565b601f19841661063386610405565b60005b8281101561065b57848901518255600182019150602085019450602081019050610636565b868310156106785784890151610674601f891682610581565b8355505b6001600288020188555050505b505050505050565b600073ffffffffffffffffffffffffffffffffffffffff82169050919050565b60006106b88261068d565b9050919050565b6106c8816106ad565b82525050565b60006020820190506106e360008301846106bf565b92915050565b7f4e487b7100000000000000000000000000000000000000000000000000000000600052601160045260246000fd5b600061072382610489565b915061072e83610489565b9250828201905080821115610746576107456106e9565b5b92915050565b61075581610489565b82525050565b600060608201905061077060008301866106bf565b61077d602083018561074c565b61078a604083018461074c565b949350505050565b60006020820190506107a7600083018461074c565b92915050565b61123a806107bc6000396000f3fe608060405234801561001057600080fd5b506004361061009e5760003560e01c8063313ce56711610066578063313ce5671461015b57806370a082311461017957806395d89b41146101a9578063a9059cbb146101c7578063dd62ed3e146101f75761009e565b806306fdde03146100a3578063095ea7b3146100c157806318160ddd146100f15780631be0b5481461010f57806323b872dd1461012b575b600080fd5b6100ab610227565b6040516100b89190610cf2565b60405180910390f35b6100db60048036038101906100d69190610dad565b6102b9565b6040516100e89190610e08565b60405180910390f35b6100f96102dc565b6040516101069190610e32565b60405180910390f35b61012960048036038101906101249190610dad565b6102e6565b005b61014560048036038101906101409190610e4d565b610393565b6040516101529190610e08565b60405180910390f35b6101636103c2565b6040516101709190610ebc565b60405180910390f35b610193600480360381019061018e9190610ed7565b6103cb565b6040516101a09190610e32565b60405180910390f35b6101b1610413565b6040516101be9190610cf2565b60405180910390f35b6101e160048036038101906101dc9190610dad565b6104a5565b6040516101ee9190610e08565b60405180910390f35b610211600480360381019061020c9190610f04565b6104c8565b60405161021e9190610e32565b60405180910390f35b60606003805461023690610f73565b80601f016020809104026020016040519081016040528092919081815260200182805461026290610f73565b80156102af5780601f10610284576101008083540402835291602001916102af565b820191906000526020600020905b81548152906001019060200180831161029257829003601f168201915b5050505050905090565b6000806102c461054f565b90506102d1818585610557565b600191505092915050565b6000600254905090565b806102f0336103cb565b1015610331576040517f08c379a000000000000000000000000000000000000000000000000000000000815260040161032890610ff0565b60405180910390fd5b6000600a82610340919061106e565b905061036e6040518060600160405280602181526020016111e4602191398285610369876103cb565b610569565b610378338261060b565b61038d838284610388919061109f565b6104a5565b50505050565b60008061039e61054f565b90506103ab85828561068d565b6103b6858585610722565b60019150509392505050565b60006012905090565b60008060008373ffffffffffffffffffffffffffffffffffffffff1673ffffffffffffffffffffffffffffffffffffffff168152602001908152602001600020549050919050565b60606004805461042290610f73565b80601f016020809104026020016040519081016040528092919081815260200182805461044e90610f73565b801561049b5780601f106104705761010080835404028352916020019161049b565b820191906000526020600020905b81548152906001019060200180831161047e57829003601f168201915b5050505050905090565b6000806104b061054f565b90506104bd818585610722565b600191505092915050565b6000600160008473ffffffffffffffffffffffffffffffffffffffff1673ffffffffffffffffffffffffffffffffffffffff16815260200190815260200160002060008373ffffffffffffffffffffffffffffffffffffffff1673ffffffffffffffffffffffffffffffffffffffff16815260200190815260200160002054905092915050565b600033905090565b6105648383836001610816565b505050565b6106058484848460405160240161058394939291906110e2565b6040516020818303038152906040527f4f04fdc6000000000000000000000000000000000000000000000000000000007bffffffffffffffffffffffffffffffffffffffffffffffffffffffff19166020820180517bffffffffffffffffffffffffffffffffffffffffffffffffffffffff83818316178352505050506109ed565b50505050565b600073ffffffffffffffffffffffffffffffffffffffff168273ffffffffffffffffffffffffffffffffffffffff160361067d5760006040517f96c6fd1e000000000000000000000000000000000000000000000000000000008152600401610674919061112e565b60405180910390fd5b61068982600083610a07565b5050565b600061069984846104c8565b90507fffffffffffffffffffffffffffffffffffffffffffffffffffffffffffffffff81101561071c578181101561070c578281836040517ffb8f41b200000000000000000000000000000000000000000000000000000000815260040161070393929190611149565b60405180910390fd5b61071b84848484036000610816565b5b50505050565b600073ffffffffffffffffffffffffffffffffffffffff168373ffffffffffffffffffffffffffffffffffffffff16036107945760006040517f96c6fd1e00000000000000000000000000000000000000000000000000000000815260040161078b919061112e565b60405180910390fd5b600073ffffffffffffffffffffffffffffffffffffffff168273ffffffffffffffffffffffffffffffffffffffff16036108065760006040517fec442f050000000000000000000000000000000000000000000000000000000081526004016107fd919061112e565b60405180910390fd5b610811838383610a07565b505050565b600073ffffffffffffffffffffffffffffffffffffffff168473ffffffffffffffffffffffffffffffffffffffff16036108885760006040517fe602df0500000000000000000000000000000000000000000000000000000000815260040161087f919061112e565b60405180910390fd5b600073ffffffffffffffffffffffffffffffffffffffff168373ffffffffffffffffffffffffffffffffffffffff16036108fa5760006040517f94280d620000000000000000000000000000000000000000000000000000000081526004016108f1919061112e565b60405180910390fd5b81600160008673ffffffffffffffffffffffffffffffffffffffff1673ffffffffffffffffffffffffffffffffffffffff16815260200190815260200160002060008573ffffffffffffffffffffffffffffffffffffffff1673ffffffffffffffffffffffffffffffffffffffff1681526020019081526020016000208190555080156109e7578273ffffffffffffffffffffffffffffffffffffffff168473ffffffffffffffffffffffffffffffffffffffff167f8c5be1e5ebec7d5bd14f71427d1e84f3dd0314c0f7b2291e5b200ac8c7c3b925846040516109de9190610e32565b60405180910390a35b50505050565b610a04816109fc610c2c610c4d565b63ffffffff16565b50565b600073ffffffffffffffffffffffffffffffffffffffff168373ffffffffffffffffffffffffffffffffffffffff1603610a59578060026000828254610a4d9190611180565b92505081905550610b2c565b60008060008573ffffffffffffffffffffffffffffffffffffffff1673ffffffffffffffffffffffffffffffffffffffff16815260200190815260200160002054905081811015610ae5578381836040517fe450d38c000000000000000000000000000000000000000000000000000000008152600401610adc93929190611149565b60405180910390fd5b8181036000808673ffffffffffffffffffffffffffffffffffffffff1673ffffffffffffffffffffffffffffffffffffffff16815260200190815260200160002081905550505b600073ffffffffffffffffffffffffffffffffffffffff168273ffffffffffffffffffffffffffffffffffffffff1603610b755780600260008282540392505081905550610bc2565b806000808473ffffffffffffffffffffffffffffffffffffffff1673ffffffffffffffffffffffffffffffffffffffff168152602001908152602001600020600082825401925050819055505b8173ffffffffffffffffffffffffffffffffffffffff168373ffffffffffffffffffffffffffffffffffffffff167fddf252ad1be2c89b69c2b068fc378daa952ba7f163c4a11628f55a4df523b3ef83604051610c1f9190610e32565b60405180910390a3505050565b60006a636f6e736f6c652e6c6f679050600080835160208501845afa505050565b610c58819050919050565b610c606111b4565b565b600081519050919050565b600082825260208201905092915050565b60005b83811015610c9c578082015181840152602081019050610c81565b60008484015250505050565b6000601f19601f8301169050919050565b6000610cc482610c62565b610cce8185610c6d565b9350610cde818560208601610c7e565b610ce781610ca8565b840191505092915050565b60006020820190508181036000830152610d0c8184610cb9565b905092915050565b600080fd5b600073ffffffffffffffffffffffffffffffffffffffff82169050919050565b6000610d4482610d19565b9050919050565b610d5481610d39565b8114610d5f57600080fd5b50565b600081359050610d7181610d4b565b92915050565b6000819050919050565b610d8a81610d77565b8114610d9557600080fd5b50565b600081359050610da781610d81565b92915050565b60008060408385031215610dc457610dc3610d14565b5b6000610dd285828601610d62565b9250506020610de385828601610d98565b9150509250929050565b60008115159050919050565b610e0281610ded565b82525050565b6000602082019050610e1d6000830184610df9565b92915050565b610e2c81610d77565b82525050565b6000602082019050610e476000830184610e23565b92915050565b600080600060608486031215610e6657610e65610d14565b5b6000610e7486828701610d62565b9350506020610e8586828701610d62565b9250506040610e9686828701610d98565b9150509250925092565b600060ff82169050919050565b610eb681610ea0565b82525050565b6000602082019050610ed16000830184610ead565b92915050565b600060208284031215610eed57610eec610d14565b5b6000610efb84828501610d62565b91505092915050565b60008060408385031215610f1b57610f1a610d14565b5b6000610f2985828601610d62565b9250506020610f3a85828601610d62565b9150509250929050565b7f4e487b7100000000000000000000000000000000000000000000000000000000600052602260045260246000fd5b60006002820490506001821680610f8b57607f821691505b602082108103610f9e57610f9d610f44565b5b50919050565b7f4e6f7420656e6f75676820746f6b656e73000000000000000000000000000000600082015250565b6000610fda601183610c6d565b9150610fe582610fa4565b602082019050919050565b6000602082019050818103600083015261100981610fcd565b9050919050565b7f4e487b7100000000000000000000000000000000000000000000000000000000600052601260045260246000fd5b7f4e487b7100000000000000000000000000000000000000000000000000000000600052601160045260246000fd5b600061107982610d77565b915061108483610d77565b92508261109457611093611010565b5b828204905092915050565b60006110aa82610d77565b91506110b583610d77565b92508282039050818111156110cd576110cc61103f565b5b92915050565b6110dc81610d39565b82525050565b600060808201905081810360008301526110fc8187610cb9565b905061110b6020830186610e23565b61111860408301856110d3565b6111256060830184610e23565b95945050505050565b600060208201905061114360008301846110d3565b92915050565b600060608201905061115e60008301866110d3565b61116b6020830185610e23565b6111786040830184610e23565b949350505050565b600061118b82610d77565b915061119683610d77565b92508282019050808211156111ae576111ad61103f565b5b92915050565b7f4e487b7100000000000000000000000000000000000000000000000000000000600052605160045260246000fdfe4275726e696e672025732066726f6d2025732c2062616c616e6365206973202573a2646970667358221220ce06bca0861829323f7119e013defd4440f878800a01af1066f549d3f58db03e64736f6c634300081c0033",
  "linkReferences": {},
  "deployedLinkReferences": {}
}